:020000000029D5
:10000800F000030EF1000B190C280B1814284B28CC
:100018000B1103138312F20AD9308100F30A4B281B
:100028007E08003C031921287E08013C0319272873
:100038007E08023C03192D284B2803138312061C43
:10004800FE0A0B104B2803138312061CFE0A0B1022
:100058004B2803138312061CFE01861C3B20061D39
:100068003F20861D4320061E47200B104B28861C68
:100078003B287F140800061D3F28FF140800861D32
:1000880043287F150800061E4728FF150800710E33
:080098008300F00E700E090058
:10020000031383160F178F160F120F14031783167D
:1002100088018901031383161F3086008501870139
:1002200088010313831681128111011581140110B5
:1002300081130313831285018601880187018901D7
:10024000031383128B178B168B150B110B100313D3
:1002500083161F309600950003138312D930810056
:10026000FE01A001A101A201A301A401A501A60113
:100270000130FA00FC00A700FB01FD01F201F301CF
:10028000F401F501F601F701F801F9017E08003CDF
:100290000319E7217E08013C0319F4217E08023C82
:1002A0000319752A7E08023C0319E72173080E3CE6
:1002B00003199421261C5D2946297208C83C031D98
:1002C0005229F201F40A74080A3C031D4629F50A72
:1002D000F4017508063C031D4629F60AF401F501F0
:1002E00076080A3C031D4629F70AF6017708063C02
:1002F000031D4629F601F701261C7F294629F80A25
:1003000078080A3C031D8729F90AF801462979086B
:10031000023C031D46297808043C031D4629F801C8
:10032000F901261CFD2946290808003C0319B129BA
:100330000808013C0319B7290808023C0319BD2924
:100340000808043C0319C4290808083C0319CB29F0
:100350000808103C0319D2290808203C0319880119
:10036000080008142008D9218500F3010800880A34
:100370002108D9218500F3010800043088002208F3
:10038000D9218500F3010800083088002308D9210D
:100390008500F3010800103088002408D921850069
:1003A000F3010800203088002508D9218500F301D9
:1003B00008008A010A140F3982073F3406345B347F
:1003C0004F3466346D347D3407347F346F347408B1
:1003D000A0007508A1007608A2007708A30078089D
:1003E000A4007908A50008007A08A2007B08A300F1
:1003F0007C08A4007D08A5000800FA0A7A080A3CD7
:10040000031D052AFB0AFA0146293C222708013C64
:100410000319122A2708023C0319202A2708033C43
:1004200003192E2A7B08033C031D46297A08023C47
:10043000031D46290130FA00FB01261C46294629E6
:100440007B08023C031D46297A08093C031D462906
:100450000130FA00FB01261C462946297B08033C93
:10046000031D46297A08013C031D46290130FA0084
:10047000FB01261C462946297C08013C0319642AF5
:100480007C08023C03196B2A7C08033C0319682A88
:100490007C08043C0319722A7C08053C0319682A6D
:1004A0007C08063C0319722A7C08073C0319682A59
:1004B0007C08083C0319682A7C08093C0319722A45
:1004C0007C08003C0319682A7D08013C0319722A44
:1004D0000130A70008007D08013C0319682A02309A
:1004E000A70008000330A70008002610F401F5015A
:1004F0007F1C7D2A7F10F60A7029FF1C8F2AFF10AF
:10050000F6037608FF3C031D52290930F600F70375
:100510007708FF3C031D52290530F70052297F1D43
:10052000932A7F117F29FF1D5229FF11F8037808B4
:10053000FF3C031D5229F9037908FF3C0319A32A44
:100540000930F80052290230F9000330F80052292E
:04400E00D420FF3F7C
:00000001FF
