:020000000029D5
:10000800F000030EF1000B190C280B1816285E28B7
:100018000B1103138312F20AD9308100F30AA80ADC
:10002800B10A5E287E08003C03192F287E08013C8F
:10003800031935287E08023C03193B287E08033C37
:1000480003193B287E08043C03193B287E08053C1D
:1000580003193B285E2803138312061C49200B1042
:100068005E2803138312061C49200B105E28031315
:100078008312061C4920861C4E20061D5220861D10
:100088005620061E5A200B105E28061C4928FE0A18
:100098007E080800861C4E287F140800061D52287A
:1000A800FF140800861D56287F150800061E5A28CA
:0E00B800FF150800710E8300F00E700E090097
:10020000031383160F178F160F120F14031783167D
:1002100088018901031383161F3086008501870139
:10022000880189010313831681128111011581143C
:100230000110811303138312850186018801870150
:100240008901031383128B178B168B150B110B105F
:10025000031383161F309600950003138312D930C1
:100260008100FE01A001A101A201A301A401A50139
:10027000A6010130FA00FC00A700FB01FD01F2011C
:10028000F301A801F401F501F601F701F801F90104
:10029000A901AA01AB01AC01AD01AE01AF01B001F2
:1002A0007E08003C031926227E08013C03193322F4
:1002B0007E08023C0319CB2A7E08033C0319062B57
:1002C0007E08043C03197E2B7E08053C0319CB2ACB
:1002D0007E08063C03198B2B7E08003C0319261070
:1002E0007E08023C031926227E08033C03193322B0
:1002F0007E08053C031926227308013C0319CE2110
:100300009E23B323261C1322261C2222261C892965
:1003100050297208C83C031D6C29F201F40A7408C4
:100320000A3C031D5029F50AF4017508063C031D1B
:100330005029F60AF401F50176080A3C031D5029FC
:10034000F70AF6017708063C031D5029F601F7016C
:10035000261CAB295029F80A78080A3C031DB3294A
:10036000F90AF80150297908023C031D5029780840
:10037000043C031D5029F801F901261C3F2A50298D
:100380008A010A140F3982073F3406345B344F3434
:1003900066346D347D3407347F346F340808003C94
:1003A0000319EB290808013C0319F1290808023C4C
:1003B0000319F7290808043C0319FE290808083C1A
:1003C0000319052A0808103C03190C2A0808203CC8
:1003D00003198801080008142008C0218500F301D2
:1003E0000800880A2108C0218500F30108000430B4
:1003F00088002208C0218500F30108000830880029
:100400002308C0218500F30108001030880024086B
:10041000C0218500F3010800203088002508C02194
:100420008500F30108002808643C031D0800A801AA
:100430007E08013C0319202A091D202A0911080001
:100440000915080087130713871208007408A00015
:100450007508A1007608A2007708A3007808A40018
:100460007908A50008007A08A4007B08A5007C088C
:10047000A2007D08A3000230A000A1000800FA0A33
:100480007A080A3C031D472AFB0AFA0150297E22FA
:100490002708013C0319542A2708023C0319622A41
:1004A0002708033C0319702A7B08033C031D5029CD
:1004B0007A08023C031D50290130FA00FB01261C7A
:1004C000B72A50297B08023C031D50297A08093CB1
:1004D000031D50290130FA00FB01261CB72A5029C0
:1004E0007B08033C031D50297A08013C031D502959
:1004F0000130FA00FB01261CB72A50297C08013C78
:100500000319A62A7C08023C0319AD2A7C08033C87
:100510000319AA2A7C08043C0319B42A7C08053C68
:100520000319AA2A7C08063C0319B42A7C08073C54
:100530000319AA2A7C08083C0319AA2A7C08093C4A
:100540000319B42A7C08003C0319AA2A7D08013C3F
:100550000319B42A0130A70008007D08013C0319E3
:10056000AA2A0230A70008000330A7000800FC0AEE
:100570007C080A3C031DBF2AFD0AFC0150297D08A6
:10058000013C031D50297C08033C031D5029013008
:10059000FC00FD0150292614F401F50109117E0823
:1005A000023C0319D42AD62A803087007F1CDB2A1C
:1005B0007F10F60A9C29FF1CED2AFF10F60376082F
:1005C000FF3C031D6C290930F600F7037708FF3C58
:1005D000031D6C290530F7006C297F1DF12A7F115E
:1005E000AB29FF1D6C29FF11F8037808FF3C031DA0
:1005F0006C29F9037908FF3C0319012B0930F80035
:100600006C290230F9000330F8006C2926145E23AF
:100610000911403087007F1D0F2B7F113F2AFF1DDE
:10062000412BFF11FA037A08003C031D1D2B7B08A8
:10063000003C0319252BFA016C297A08FF3C031DA5
:100640006C290930FA00FB036C297E222708013C43
:100650000319322B2708023C0319372B2708033CC8
:1006600003193C2B0130FA000330FB006C290830E1
:10067000FA000230FB006C290030FA000330FB0066
:100680006C297F1C452B7F10B72AFF1C6C29FF109B
:10069000FC037C08003C031D562B7D08003C031D19
:1006A0006C290230FC000130FD006C297C08FF3C05
:1006B000031D6C29FD030930FC006C297E222708EC
:1006C000023C0319682B2708033C0319712B08000F
:1006D0007B08033C031D08000230FB000830FA00D1
:1006E00008007B08033C031D08007A08013C031D39
:1006F00008000330FB000030FA0008000911203028
:100700008700FE0A7808AD007908AE007608AF00D1
:100710007708B000CB2A2408A9002508AA002208DF
:10072000AB002308AC002D08F8002E08F9002F08B4
:10073000F6003008F700FE01A6145029A61C080098
:100740002508AA02031D08002408A902031D0800A9
:100750002308AC02031D08002208AB02031D080099
:100760000716A6100800071E08003108C83C031D24
:080770000800B10107120800A6
:04400E00D420FF3F7C
:00000001FF
