:020000000029D5
:10000800F000030EF1000B190C280B1815286628B0
:100018000B1103138312F20AD9308100F30AA80ADC
:1000280066287E08003C031926287E08013C03192F
:100038002C287E08023C031932287E08033C031949
:100048004028662803138312061C4E200B106628CE
:1000580003138312061C4E200B1066280313831209
:10006800061C4E20861C5620061D5A20861D5E2022
:10007800061E62200B10662803138312061C4E20EE
:10008800861C5620061D5A20861D5E20061E6220EC
:100098000B106628061C4E28FE0A7E08043C03192D
:1000A800FE010800861C56287F140800061D5A28E1
:1000B800FF140800861D5E287F150800061E6228AA
:0E00C800FF150800710E8300F00E700E090087
:10020000031383160F178F160F120F14031783167D
:1002100088018901031383161F3086008501870139
:10022000880189010313831681128111011581143C
:100230000110811303138312850186018801870150
:100240008901031383128B178B168B150B110B105F
:10025000031383161F309600950003138312D930C1
:100260008100FE01A001A101A201A301A401A50139
:10027000A6010130FA00FC00A700FB01FD01F2011C
:10028000F301A801F401F501F601F701F801F90104
:100290007E08003C031908227E08013C0319152240
:1002A0007E08023C0319AD2A7E08033C0319E32AA9
:1002B0007E08003C031926107E08023C0319082220
:1002C0007E08033C031915227308013C0319A6217B
:1002D000261CF921261C8701261C6F294829720833
:1002E000C83C031D5829F201F40A74080A3C031D96
:1002F0004829F50AF4017508063C031D4829F60A49
:10030000F401F50176080A3C031D4829F70AF601B5
:100310007708063C031D4829F601F701261C9129A0
:100320004829F80A78080A3C031D9929F90AF801B6
:1003300048297908023C031D48297808043C031D1C
:100340004829F801F901261C212A48290808003CFF
:100350000319C3290808013C0319C9290808023CEC
:100360000319CF290808043C0319D6290808083CBA
:100370000319DD290808103C0319E4290808203C6A
:1003800003198801080008142008EB218500F301F7
:100390000800880A2108EB218500F30108000430D9
:1003A00088002208EB218500F3010800083088004E
:1003B0002308EB218500F301080010308800240891
:1003C000EB218500F3010800203088002508EB218F
:1003D0008500F30108008A010A140F3982073F34AF
:1003E00006345B344F3466346D347D3407347F34E7
:1003F0006F342808643C031D0800A8017E08013CF6
:100400000319062A091D062A091108000915080002
:100410007408A0007508A1007608A2007708A30060
:100420007808A4007908A50008007A08A4007B08D1
:10043000A5007C08A2007D08A3000230A000A10056
:100440000800FA0A7A080A3C031D292AFB0AFA0165
:10045000482960222708013C0319362A2708023C54
:100460000319442A2708033C0319522A7B08033C3A
:10047000031D48297A08023C031D48290130FA006F
:10048000FB01261C992A48297B08023C031D4829A8
:100490007A08093C031D48290130FA00FB01261C9B
:1004A000992A48297B08033C031D48297A08013C06
:1004B000031D48290130FA00FB01261C992A48290E
:1004C0007C08013C0319882A7C08023C03198F2A06
:1004D0007C08033C03198C2A7C08043C0319962AE7
:1004E0007C08053C03198C2A7C08063C0319962AD3
:1004F0007C08073C03198C2A7C08083C03198C2AC9
:100500007C08093C0319962A7C08003C03198C2AB4
:100510007D08013C0319962A0130A70008007D08D8
:10052000013C03198C2A0230A70008000330A70001
:100530000800FC0A7C080A3C031DA12AFD0AFC01F4
:1005400048297D08013C031D48297C08033C031D04
:1005500048290130FC00FD0148292614F401F50169
:100560000911803087007F1CB82A7F10F60A822983
:10057000FF1CCA2AFF10F6037608FF3C031D58290A
:100580000930F600F7037708FF3C031D58290530B2
:10059000F70058297F1DCE2A7F119129FF1D582968
:1005A000FF11F8037808FF3C031D5829F903790867
:1005B000FF3C0319DE2A0930F80058290230F900FF
:1005C0000330F800582926143B23091140308700D6
:1005D0007F1CEC2A7F10212AFF1C1E2BFF10FA0320
:1005E0007A08003C031DFA2A7B08003C0319022B01
:1005F000FA0158297A08FF3C031D58290930FA00EE
:10060000FB03582960222708013C03190F2B2708F8
:10061000023C0319142B2708033C0319192B013042
:10062000FA000330FB0058290830FA000230FB00C2
:1006300058290030FA000330FB0058297F1D222B77
:100640007F11992AFF1D5829FF11FC037C08003CEB
:10065000031D332B7D08003C031D58290230FC008C
:100660000130FD0058297C08FF3C031D5829FD037B
:100670000930FC00582960222708023C0319452B49
:100680002708033C03194E2B08007B08033C031D7D
:1006900008000230FB000830FA0008007B08033C29
:1006A000031D08007A08013C031D08000330FB000D
:0606B0000030FA00080012
:04400E00D420FF3F7C
:00000001FF
