:020000000029D5
:10000800F000030EF1000B190C280B1814283128E6
:100018000B1103138312F20AD9308100F30A312835
:100028007A08003C03191D287A08013C0319232883
:10003800312803138312061CFA0A0B103128031304
:100048008312061CFA01861C7B14061DFB14861DF0
:100058007B15061EFB150B103128710E8300F00E60
:04006800700E09000D
:10020000031383160F178F160F120F14031783167D
:1002100088018901031383161F3086008501870139
:1002200088010313831681128111011581140110B5
:1002300081130313831285018601880187018901D7
:10024000031383128B178B168B150B110B100313D3
:1002500083161F309600950003138312D930810056
:10026000FA01FC01FD01F201F301F401F501F601CF
:10027000F701F801F9017A08003C031943297A08CB
:10028000013C0319E72973080E3C031994217A08ED
:10029000003C03194C293B297208C83C031D432923
:1002A000F201F40A74080A3C031D3B29F50AF40123
:1002B0007508063C031D3B29F60AF401F501760892
:1002C0000A3C031D3B29F70AF6017708063C031D8B
:1002D0003B29F601F701F401F5017A08003C031906
:1002E00072293B29F80A78080A3C031D8129F90A7A
:1002F000F8017A08003C031D3B29F601F701F401DF
:10030000F5017908023C031D3B297808043C031DD4
:100310003B29F801F9017A08003C031D3B29F6014D
:10032000F701F401F5013B290808003C0319B12944
:100330000808013C0319B7290808023C0319BD2924
:100340000808043C0319C4290808083C0319CB29F0
:100350000808103C0319D2290808203C0319880119
:10036000080008147408D9218500F3010800880AE0
:100370007508D9218500F30108000430880076084B
:10038000D9218500F3010800083088007708D921B9
:100390008500F3010800103088007808D921850015
:1003A000F3010800203088007908D9218500F30185
:1003B00008008A010A140F3982073F3406345B347F
:1003C0004F3466346D347D3407347F346F34F40138
:1003D000F5017B1CEE297B10F60A5F29FB1C002A25
:1003E000FB10F6037608FF3C031D43290930F60095
:1003F000F7037708FF3C031D43290530F700432925
:100400007B1D042A7B117229FB1D4329FB11F80374
:100410007808FF3C031D4329F9037908FF3C0319C1
:10042000142A0930F80043290230F9000330F8009B
:0204300043295E
:04400E00D420FF3F7C
:00000001FF
