:020000000029D5
:10000800F000030EF1000B190A2812280B11031334
:100018008312F20AD9308100F30A1228710E830084
:06002800F00E700E09004D
:10020000031383160F178F160F120F14031783167D
:100210008801890103138316F83086008501870160
:1002200088010313831681128111011581140114B1
:1002300081130313831285018601880187018901D7
:10024000031383128B178B160B1103138316F830CD
:100250009600950003138312D9308100F201F30157
:10026000F401F501F601F701F801F9017308053C05
:10027000031971217208643C031D3629F201F40A46
:1002800074080A3C031D3629F50AF4017508063C7A
:10029000031D3629F60AF401F50176080A3C031D10
:1002A0003629F70AF6017708063C031D3629F80AB5
:1002B000F601F701F401F50178080A3C031D36291F
:1002C000F90AF801F601F701F401F5017908183C83
:1002D000031D3629F801F901F601F701F401F501D2
:1002E00036290808003C03198E290808013C031927
:1002F00094290808023C03199A290808043C0319A8
:10030000A1290808083C0319A8290808103C03196A
:10031000AF290808203C0319880108000814740854
:10032000B6218500F3010800880A7508B62185000A
:10033000F3010800043088007608B6218500F30137
:100340000800083088007708B6218500F30108000E
:10035000103088007808B6218500F30108002030AD
:1003600088007908B6218500F30108008A010A1483
:100370000F3982073F3406345B344F3466346D34B2
:080380007D3407347F346F3433
:04400E00D420FF3F7C
:00000001FF
