:020000000029D5
:10000800F000030EF1000B190C280B1814283128E6
:100018000B1103138312F20AD9308100F30A312835
:100028007A08003C03191D287A08013C0319232883
:10003800312803138312061CFA0A0B103128031304
:100048008312061CFA01861C7B14061DFB14861DF0
:100058007B15061EFB150B103128710E8300F00E60
:04006800700E09000D
:10020000031383160F178F160F120F14031783167D
:1002100088018901031383161F3086008501870139
:1002200088010313831681128111011581140110B5
:1002300081130313831285018601880187018901D7
:10024000031383128B178B168B150B110B100313D3
:1002500083161F309600950003138312D930810056
:10026000FA01A001A101A201A301A401A501A60117
:10027000F201F301F401F501F601F701F801F901CA
:100280007A08003C0319E6217A08013C0319F32996
:100290007A08013C0319E62173080E3C03199321E7
:1002A0007A08003C0319552940297208C83C031DEF
:1002B0004829F201F40A74080A3C031D4029F50A92
:1002C000F4017508063C031D4029F60AF401F50106
:1002D00076080A3C031D4029F70AF6017708063C18
:1002E000031D4029F601F7017A08003C031979291A
:1002F0004029F80A78080A3C031D8429F90AF80104
:100300007A08003C031D40297908023C031D40295E
:100310007808043C031D4029F801F9017A08003CE3
:10032000031D402940290808003C0319B02908088A
:10033000013C0319B6290808023C0319BC29080826
:10034000043C0319C3290808083C0319CA290808F2
:10035000103C0319D1290808203C03198801080022
:1003600008142008D8218500F3010800880A210814
:10037000D8218500F3010800043088002208D82124
:100380008500F3010800083088002308D821850083
:10039000F3010800103088002408D8218500F301FB
:1003A0000800203088002508D8218500F3010800C6
:1003B0008A010A140F3982073F3406345B344F3404
:1003C00066346D347D3407347F346F347408A00094
:1003D0007508A1007608A2007708A3007808A40099
:1003E0007908A5000800F401F5017B1CFA297B10AF
:1003F000F60A6829FB1C0C2AFB10F6037608FF3C62
:10040000031D48290930F600F7037708FF3C031D58
:1004100048290530F70048297B1D102A7B117929CE
:10042000FB1D4829FB11F8037808FF3C031D4829F0
:10043000F9037908FF3C0319202A0930F8004829FC
:0A0440000230F9000330F8004829EB
:04400E00D420FF3F7C
:00000001FF
