:020000000029D5
:10000800F000030EF1000B190C280B1815286628B0
:100018000B1103138312F20AD9308100F30AA80ADC
:1000280066287E08003C031926287E08013C03192F
:100038002C287E08023C031932287E08033C031949
:100048004028662803138312061C4E200B106628CE
:1000580003138312061C4E200B1066280313831209
:10006800061C4E20861C5620061D5A20861D5E2022
:10007800061E62200B10662803138312061C4E20EE
:10008800861C5620061D5A20861D5E20061E6220EC
:100098000B106628861C4E28FE0A7E08043C0319AD
:1000A800FE010800861C56287F140800061D5A28E1
:1000B800FF140800861D5E287F150800061E6228AA
:0E00C800FF150800710E8300F00E700E090087
:10020000031383160F178F160F120F14031783167D
:1002100088018901031383161F3086008501870139
:10022000880189010313831681128111011581143C
:100230000110811303138312850186018801870150
:100240008901031383128B178B168B150B110B105F
:10025000031383161F309600950003138312D930C1
:100260008100FE01A001A101A201A301A401A50139
:10027000A6010130FA00FC00A700FB01FD01F2011C
:10028000F301A801F401F501F601F701F801F90104
:100290007E08003C031906227E08013C0319132244
:1002A0007E08023C0319AB2A7E08033C0319DE2AB0
:1002B0007E08003C031926107E08023C0319062222
:1002C0007E08033C031913227308013C0319A4217F
:1002D000261CF721261C6D2948297208C83C031DDD
:1002E0005829F201F40A74080A3C031D4829F50A4A
:1002F000F4017508063C031D4829F60AF401F501CE
:1003000076080A3C031D4829F70AF6017708063CDF
:10031000031D4829F601F701261C8F294829F80AF0
:1003200078080A3C031D9729F90AF8014829790839
:10033000023C031D48297808043C031D4829F801A4
:10034000F901261C1F2A48290808003C0319C12965
:100350000808013C0319C7290808023C0319CD29E4
:100360000808043C0319D4290808083C0319DB29B0
:100370000808103C0319E2290808203C03198801E9
:10038000080008142008E9218500F3010800880A04
:100390002108E9218500F3010800043088002208C3
:1003A000E9218500F3010800083088002308E921CD
:1003B0008500F3010800103088002408E921850039
:1003C000F3010800203088002508E9218500F301A9
:1003D00008008A010A140F3982073F3406345B345F
:1003E0004F3466346D347D3407347F346F342808DD
:1003F000643C031D0800A8017E08013C0319042A7F
:10040000091D042A09110800091508007408A00034
:100410007508A1007608A2007708A3007808A40058
:100420007908A50008007A08A4007B08A5007C08CC
:10043000A2007D08A3000230A000A1000800FA0A73
:100440007A080A3C031D272AFB0AFA0148295E2282
:100450002708013C0319342A2708023C0319422AC1
:100460002708033C0319502A7B08033C031D482935
:100470007A08023C031D48290130FA00FB01261CC2
:10048000972A48297B08023C031D48297A08093C21
:10049000031D48290130FA00FB01261C972A482930
:1004A0007B08033C031D48297A08013C031D4829A9
:1004B0000130FA00FB01261C972A48297C08013CE0
:1004C0000319862A7C08023C03198D2A7C08033C08
:1004D00003198A2A7C08043C0319942A7C08053CE9
:1004E00003198A2A7C08063C0319942A7C08073CD5
:1004F00003198A2A7C08083C03198A2A7C08093CCB
:100500000319942A7C08003C03198A2A7D08013CBF
:100510000319942A0130A70008007D08013C031943
:100520008A2A0230A70008000330A7000800FC0A4E
:100530007C080A3C031D9F2AFD0AFC0148297D080E
:10054000013C031D48297C08033C031D4829013058
:10055000FC00FD0148292614F401F5017F1CB32A93
:100560007F10F60A8029FF1CC52AFF10F6037608C3
:10057000FF3C031D58290930F600F7037708FF3CBC
:10058000031D58290530F70058297F1DC92A7F11FE
:100590008F29FF1D5829FF11F8037808FF3C031D20
:1005A0005829F9037908FF3C0319D92A0930F800C2
:1005B00058290230F9000330F80058292614332353
:1005C0007F1CE42A7F101F2AFF1C162BFF10FA0342
:1005D0007A08003C031DF22A7B08003C0319FA2A22
:1005E000FA0158297A08FF3C031D58290930FA00FE
:1005F000FB0358295E222708013C0319072B270813
:10060000023C03190C2B2708033C0319112B013062
:10061000FA000330FB0058290830FA000230FB00D2
:1006200058290030FA000330FB0058297F1D1A2B8F
:100630007F11972AFF1D5829FF11FC037C08003CFD
:10064000031D2B2B7D08003C031D58290230FC00A4
:100650000130FD0058297C08FF3C031D5829FD038B
:100660000930FC0058295E222708023C03193D2B63
:100670002708033C0319462B08007B08033C031D95
:1006800008000230FB000830FA0008007B08033C39
:10069000031D08007A08013C031D08000330FB001D
:0606A0000030FA00080022
:04400E00D420FF3F7C
:00000001FF
