:020000000029D5
:10000800F000030EF1000B190C280B1814286528B2
:100018000B1103138312F20AD9308100F30A652801
:100028007E08003C031925287E08013C03192B286B
:100038007E08023C031931287E08033C03193F2837
:10004800652803138312061C4D200B106528031323
:100058008312061C4D200B10652803138312061CFF
:100068004D20861C5520061D5920861D5D20061E24
:1000780061200B10652803138312061C4D20861C73
:100088005520061D5920861D5D20061E61200B1077
:100098006528861C4D28FE0A7E08043C0319FE01CB
:1000A8000800861C55287F140800061D5928FF14CF
:1000B8000800861D5D287F150800061E6128FF15AB
:0C00C8000800710E8300F00E700E09009D
:10020000031383160F178F160F120F14031783167D
:1002100088018901031383161F3086008501870139
:1002200088010313831681128111011581140110B5
:1002300081130313831285018601880187018901D7
:10024000031383128B178B168B150B110B100313D3
:1002500083161F309600950003138312D930810056
:10026000FE01A001A101A201A301A401A501A60113
:100270000130FA00FC00A700FB01FD01F201F301CF
:10028000F401F501F601F701F801F9017E08003CDF
:100290000319F3217E08013C031900227E08023C69
:1002A0000319952A7E08033C0319C82A7E08003CDE
:1002B000031926107E08023C0319F3217E08033C33
:1002C000031900227308013C0319A021261C692987
:1002D00046297208C83C031D5629F201F40A740825
:1002E0000A3C031D4629F50AF4017508063C031D66
:1002F0004629F60AF401F50176080A3C031D462951
:10030000F70AF6017708063C031D4629F601F701B6
:10031000261C8B294629F80A78080A3C031D9329D4
:10032000F90AF80146297908023C031D4629780894
:10033000043C031D4629F801F901261C092A462917
:100340000808003C0319BD290808013C0319C3290A
:100350000808023C0319C9290808043C0319D029DC
:100360000808083C0319D7290808103C0319DE299E
:100370000808203C03198801080008142008E5211A
:100380008500F3010800880A2108E5218500F301B2
:100390000800043088002208E5218500F3010800E8
:1003A000083088002308E5218500F301080010309B
:1003B00088002408E5218500F3010800203088002A
:1003C0002508E5218500F30108008A010A140F3988
:1003D00082073F3406345B344F3466346D347D34E9
:1003E00007347F346F347408A0007508A1007608C4
:1003F000A2007708A3007808A4007908A5000800E7
:100400007A08A2007B08A3007C08A4007D08A50050
:100410000800FA0A7A080A3C031D112AFB0AFA01AD
:10042000462948222708013C03191E2A2708023CB6
:1004300003192C2A2708033C03193A2A7B08033C9A
:10044000031D46297A08023C031D46290130FA00A3
:10045000FB01261C812A46297B08023C031D4629F4
:100460007A08093C031D46290130FA00FB01261CCD
:10047000812A46297B08033C031D46297A08013C52
:10048000031D46290130FA00FB01261C812A46295A
:100490007C08013C0319702A7C08023C0319772A66
:1004A0007C08033C0319742A7C08043C03197E2A47
:1004B0007C08053C0319742A7C08063C03197E2A33
:1004C0007C08073C0319742A7C08083C0319742A29
:1004D0007C08093C03197E2A7C08003C0319742A15
:1004E0007D08013C03197E2A0130A70008007D0821
:1004F000013C0319742A0230A70008000330A7004A
:100500000800FC0A7C080A3C031D892AFD0AFC013C
:1005100046297D08013C031D46297C08033C031D38
:1005200046290130FC00FD0146292614F401F5019D
:100530007F1C9D2A7F10F60A7C29FF1CAF2AFF1022
:10054000F6037608FF3C031D56290930F600F70331
:100550007708FF3C031D56290530F70056297F1DFB
:10056000B32A7F118B29FF1D5629FF11F803780844
:10057000FF3C031D5629F9037908FF3C0319C32AE0
:100580000930F80056290230F9000330F8005629E6
:1005900026147F1CCD2A7F10092AFF1CFF2AFF107A
:1005A000FA037A08003C031DDB2A7B08003C031990
:1005B000E32AFA0156297A08FF3C031D562909301F
:1005C000FA00FB03562948222708013C0319F02AA8
:1005D0002708023C0319F52A2708033C0319FA2AC5
:1005E0000130FA000330FB0056290830FA000230CF
:1005F000FB0056290030FA000330FB0056297F1D0E
:10060000032B7F11812AFF1D5629FF11FC037C0853
:10061000003C031D142B7D08003C031D56290230AD
:10062000FC000130FD0056297C08FF3C031D5629C3
:08063000FD030930FC0056290E
:04400E00D420FF3F7C
:00000001FF
