:020000000029D5
:10000800F000030EF1000B190C280B1814283128E6
:100018000B1103138312F20AD9308100F30A312835
:100028007A08003C03191D287A08013C0319232883
:10003800312803138312061CFA0A0B103128031304
:100048008312861C7B14061DFB14861D7B15061E59
:10005800FB15061CFA0A0B103128710E8300F00EEE
:04006800700E09000D
:10020000031383160F178F160F120F14031783167D
:1002100088018901031383161F3086008501870139
:1002200088010313831681128111011581140114B1
:1002300081130313831285018601880187018901D7
:10024000031383128B178B168B150B110B100313D3
:1002500083161F309600950003138312D930810056
:10026000FA01FC01FD01F201F301F401F501F601CF
:10027000F701F801F9017A08013C0319D229730842
:10028000073C03197F217A08003C031948293B29C0
:100290007208643C031D3F29F201F40A74080A3C09
:1002A000031D3B29F50AF4017508063C031D3B2993
:1002B000F60AF401F50176080A3C031D3B29F70A0A
:1002C000F6017708063C031D3B29F80AF601F70101
:1002D000F401F50178080A3C031D3B29F90AF801ED
:1002E000F601F701F401F5017908183C031D3B29DB
:1002F000F801F901F601F701F401F5013B290808BD
:10030000003C03199C290808013C0319A22908088C
:10031000023C0319A8290808043C0319AF2908085E
:10032000083C0319B6290808103C0319BD29080820
:10033000203C03198801080008147408C4218500B2
:10034000F3010800880A7508C4218500F30108003C
:10035000043088007608C4218500F30108000830C5
:1003600088007708C4218500F30108001030880058
:100370007808C4218500F30108002030880079083E
:10038000C4218500F30108008A010A140F3982078D
:100390003F3406345B344F3466346D347D34073477
:1003A0007F346F347B1CD9297B107608EF217C08C1
:1003B000F600FB1CE029FB107608F7217C08F6000C
:1003C0007B1DE7297B11770800227C08F700FB1DC5
:1003D0003F29FB11770808227C08F7003F29FC0021
:1003E000FC0A7C080A3C031D0800FC010800FC0014
:1003F000FC037C08FF3C031D08000930FC000800DA
:10040000FC00FC0A7C08063C031D0800FC010800F7
:10041000FC00FC037C08FF3C031D08000530FC00C9
:020420000800D2
:04400E00D420FF3F7C
:00000001FF
