:020000000029D5
:10000800F000030EF1000B190C280B1815285D28B9
:100018000B1103138312F20A07308100F30AA80AAE
:100028005D287E08003C03192E287E08013C031930
:1000380034287E08023C03193A287E08033C031939
:100048003A287E08043C03193A287E08053C03191F
:100058003A285D2803138312061C48200B105D28DC
:1000680003138312061C48200B105D280313831208
:10007800061C4820861C4D20061D5120861D552033
:10008800061E59200B105D28061C4828FE0A7E080B
:100098000800861C4D287F140800061D5128FF14EF
:1000A8000800861D55287F150800061E5928FF15CB
:0C00B8000800710E8300F00E700E0900AD
:10020000031383160F178F160F120F14031783167D
:1002100088018901031383161F3086008501870139
:100220008801890103138316811281110111811440
:10023000011481130313831285018601880187014C
:100240008901031383128B178B168B150B110B105F
:10025000031383161F309600950003138312073093
:100260008100FE01A001A101A201A301A401A50139
:10027000A6010130FA00FC00A700FB01FD01F2011C
:10028000F301A801F401F501F601F701F801F90104
:10029000A901AA01AB01AC01AD01AE01AF01B001F2
:1002A0007E08003C03192F227E08013C03193C22E2
:1002B0007E08023C0319D42A7E08033C03190F2B45
:1002C0007E08043C0319872B7E08053C0319D42AB9
:1002D0007E08063C0319942B7E08003C0319261067
:1002E0007E08023C03192F227E08033C03193C229E
:1002F0007E08053C03192F227308013C0319D721FE
:100300000A128A11A723BD230A128A110A128A111E
:10031000C5230A128A11261C1C22261C2B22261CED
:10032000922950297208FA3C031D6C29F201F40A43
:1003300074080A3C031D5029F50AF4017508063CAF
:10034000031D5029F60AF401F50176080A3C031D45
:100350005029F70AF6017708063C031D5029F601DB
:10036000F701261CB4295029F80A78080A3C031D15
:10037000BC29F90AF80150297908023C031D5029CB
:100380007808043C031D5029F801F901261C482A6D
:1003900050298A010A140F3982073F3406345B342E
:1003A0004F3466346D347D3407347F346F3408083D
:1003B000003C0319F4290808013C0319FA2908082C
:1003C000023C0319002A0808043C0319072A0808FC
:1003D000083C03190E2A0808103C0319152A0808BE
:1003E000203C03198801080008142008C921850051
:1003F000F3010800880A2108C9218500F3010800DB
:10040000043088002208C9218500F3010800083063
:1004100088002308C9218500F301080010308800F6
:100420002408C9218500F301080020308800250830
:10043000C9218500F30108002808643C031D080059
:10044000A8017E08013C0319292A091D292A09113E
:10045000080009150800871307138712080074089D
:10046000A0007508A1007608A2007708A30078080C
:10047000A4007908A50008007A08A4007B08A5005C
:100480007C08A2007D08A3000230A000A1000800A3
:10049000FA0A7A080A3C031D502AFB0AFA0150297D
:1004A00087222708013C03195D2A2708023C03190B
:1004B0006B2A2708033C0319792A7B08033C031D98
:1004C00050297A08023C031D50290130FA00FB0133
:1004D000261CC02A50297B08023C031D50297A089B
:1004E000093C031D50290130FA00FB01261CC02ADB
:1004F00050297B08033C031D50297A08013C031D49
:1005000050290130FA00FB01261CC02A50297C0822
:10051000013C0319AF2A7C08023C0319B62A7C0867
:10052000033C0319B32A7C08043C0319BD2A7C0848
:10053000053C0319B32A7C08063C0319BD2A7C0834
:10054000073C0319B32A7C08083C0319B32A7C082A
:10055000093C0319BD2A7C08003C0319B32A7D0815
:10056000013C0319BD2A0130A70008007D08013CA9
:100570000319B32A0230A70008000330A7000800BF
:10058000FC0A7C080A3C031DC82AFD0AFC0150290C
:100590007D08013C031D50297C08033C031D5029A4
:1005A0000130FC00FD0150292614F401F501091168
:1005B0007E08023C0319DD2ADF2A803087007F1C79
:1005C000E42A7F10F60AA529FF1CF62AFF10F6037D
:1005D0007608FF3C031D6C290930F600F703770805
:1005E000FF3C031D6C290530F7006C297F1DFA2A9A
:1005F0007F11B429FF1D6C29FF11F8037808FF3C17
:10060000031D6C29F9037908FF3C03190A2B0930F3
:10061000F8006C290230F9000330F8006C29261428
:1006200067230911403087007F1D182B7F11482A4E
:10063000FF1D4A2BFF11FA037A08003C031D262BED
:100640007B08003C03192E2BFA016C297A08FF3C29
:10065000031D6C290930FA00FB036C298722270847
:10066000013C03193B2B2708023C0319402B2708A8
:10067000033C0319452B0130FA000330FB006C29C1
:100680000830FA000230FB006C290030FA00033019
:10069000FB006C297F1C4E2B7F10C02AFF1C6C298D
:1006A000FF10FC037C08003C031D5F2B7D08003C11
:1006B000031D6C290230FC000130FD006C297C0810
:1006C000FF3C031D6C29FD030930FC006C298722C7
:1006D0002708023C0319712B2708033C03197A2BC6
:1006E00008007B08033C031D08000230FB000830B3
:1006F000FA0008007B08033C031D08007A08013C4F
:10070000031D08000330FB000030FA000800091147
:1007100020308700FE0A7808AD007908AE00760820
:10072000AF007708B000D42A7808A9007908AA0099
:100730007608AB007708AC002D08F8002E08F90009
:100740002F08F6003008F700A614FE015029A61C59
:1007500008002A082502031D080029082402031D99
:1007600008002C082302031D08002B082202031D89
:1007700008000716A61026150800261D0800071AEF
:10078000C32B0716080007120800261D08002618AC
:10079000CD2B7508013C031D080026110712080027
:04400E00D420FF3F7C
:00000001FF
