:020000000029D5
:10000800F000030EF1000B190A2812280B11031334
:100018008312F20AD9308100F30A1228710E830084
:06002800F00E700E09004D
:10020000031383160F178F160F120F14031783167D
:100210008801890103138316F83086008501870160
:1002200088010313831681128111011581140114B1
:1002300081130313831285018601880187018901D7
:10024000031383128B178B160B1103138316F830CD
:100250009600950003138312D9308100F201F30157
:10026000F401F501F601F7017308053C0319452176
:100270007208643C031D3429F201F40A74080A3C34
:10028000031D3429F50AF40134290808003C031938
:1002900062290808013C031968290808023C03196F
:1002A0006E290808043C031975290808083C03193D
:1002B0007C290808103C031983290808203C0319ED
:1002C00088010800081474088A218500F3010800D9
:1002D000880A75088A218500F30108000430880027
:1002E00076088A218500F301080008308800760826
:1002F0008A218500F30108001030880076088A21E1
:100300008500F30108002030880076088A218500E6
:10031000F30108008A010A140F3982073F340634BA
:100320005B344F3466346D347D3407347F346F343E
:0C03300077347F3439343F347934713431
:04400E00D420FF3F7C
:00000001FF
