:020000000029D5
:10000800F000030EF1000B190C280B1814284B28CC
:100018000B1103138312F20AD9308100F30A4B281B
:100028007E08003C031921287E08013C0319272873
:100038007E08023C03192D284B2803138312061C43
:10004800FE0A0B104B2803138312061CFE0A0B1022
:100058004B2803138312061CFE01861C3B20061D39
:100068003F20861D4320061E47200B104B28861C68
:100078003B287F140800061D3F28FF140800861D32
:1000880043287F150800061E4728FF150800710E33
:080098008300F00E700E090058
:10020000031383160F178F160F120F14031783167D
:1002100088018901031383161F3086008501870139
:1002200088010313831681128111011581140110B5
:1002300081130313831285018601880187018901D7
:10024000031383128B178B168B150B110B100313D3
:1002500083161F309600950003138312D930810056
:10026000FE01A001A101A201A301A401A501A60113
:100270000130FA00FC00FB01FD01F201F301F40181
:10028000F501F601F701F801F9017E08003C0319B8
:10029000E9217E08013C0319F6217E08023C03197E
:1002A000FF297E08023C0319E92173080E3C03195B
:1002B0009621261C5C2945297208C83C031D51293A
:1002C000F201F40A74080A3C031D4529F50AF401F9
:1002D0007508063C031D4529F60AF401F501760868
:1002E0000A3C031D4529F70AF6017708063C031D61
:1002F0004529F601F701261C7E294529F80A7808C8
:100300000A3C031D8929F90AF8017E08003C031DF7
:1003100045297908023C031D45297808043C031D42
:100320004529F801F901261C452945290808003C02
:100330000319B3290808013C0319B9290808023C2C
:100340000319BF290808043C0319C6290808083CFA
:100350000319CD290808103C0319D4290808203CAA
:1003600003198801080008142008DB218500F30127
:100370000800880A2108DB218500F3010800043009
:1003800088002208DB218500F3010800083088007E
:100390002308DB218500F3010800103088002408C1
:1003A000DB218500F3010800203088002508DB21CF
:1003B0008500F30108008A010A140F3982073F34CF
:1003C00006345B344F3466346D347D3407347F3407
:1003D0006F347408A0007508A1007608A2007708A1
:1003E000A3007808A4007908A50008007A08A200F4
:1003F0007B08A3007C08A4007D08A5000800261047
:10040000F401F5017F1C072A7F10F60A6F29FF1CF3
:10041000192AFF10F6037608FF3C031D5129093005
:10042000F600F7037708FF3C031D51290530F7005C
:1004300051297F1D1D2A7F117E29FF1D5129FF1182
:10044000F8037808FF3C031D5129F9037908FF3CA4
:1004500003192D2A0930F80051290230F900033020
:04046000F800512926
:04400E00D420FF3F7C
:00000001FF
